S3150800000010500020E9020008BD1400083B1400083F
S31508000010B91400081F060008A5160008000000000D
S31508000020000000000000000000000000290200088F
S31508000030230600080000000085020008CB1400080B
S31508000040030300080303000803030008030300086A
S31508000050030300080303000803030008030300085A
S31508000060030300080303000803030008030300084A
S31508000070030300080303000803030008030300083A
S31508000080030300080303000803030008030300082A
S31508000090030300080303000803030008030300081A
S315080000A0030300080303000803030008030300080A
S315080000B0AD1500080303000803030008030300083E
S315080000C003030008030300080303000803030008EA
S315080000D003030008030300080303000803030008DA
S315080000E003030008030300080303000803030008CA
S315080000F003030008030300080303000803030008BA
S3150800010003030008030300080303000803030008A9
S315080001100303000803030008030300080303000899
S315080001200303000803030008030300080303000889
S315080001300303000803030008030300080303000879
S315080001400303000803030008030300080303000869
S315080001500303000803030008030300080303000859
S315080001600303000803030008030300080303000849
S315080001700303000803030008030300080000000047
S31508000180030300080303000800F002F800F03CF837
S315080001900AA090E8000C82448344AAF10107DA45D4
S315080001A001D100F031F8AFF2090EBAE80F0013F0EA
S315080001B0010F18BFFB1A43F00103184798350000D2
S315080001C0B8350000103A24BF78C878C1FAD8520763
S315080001D024BF30C830C144BF04680C6070470000B3
S315080001E00023002400250026103A28BF78C1FBD832
S315080001F0520728BF30C148BF0B6070471FB503F0D0
S315080002007FFA1FBD10B510BD00F0D0F91146FFF7F3
S31508000210F5FF01F069FA00F0EEF903B4FFF7F2FF13
S3150800022003BC00F0F5F900002C4B19680868B0E823
S31508000230F04F80F30988BFF36F8F4FF0000080F30B
S31508000240118870470000000008480068006880F3BD
S3150800025008884FF0000080F3148862B661B6BFF3D1
S315080002604F8FBFF36F8F00DF00BF00BF08ED00E0C0
S31508000270DFF80C00016841F470010160704700BFA7
S3150800028088ED00E0EFF30980BFF36F8F134B1A6810
S315080002901EF0100F08BF20ED108A20E9F04F1060FD
S315080002A009B44FF0500080F31188BFF34F8FBFF3A6
S315080002B06F8F02F021FB4FF0000080F3118809BC14
S315080002C019680868B0E8F04F1EF0100F08BFB0ECC8
S315080002D0108A80F30988BFF36F8F704744000020A7
S315080002E0EFF3058070470000094880470948004732
S315080002F0FEE7FEE7FEE7FEE7FEE7FEE7FEE7FEE7C8
S31508000300FEE7FEE704480549054A064B7047000024
S315080003109915000889010008104A0020105000208D
S31508000320104C0020104C002053EA020C00F06980A3
S315080003302DE9F04B4FF00006002B1FBFB3FA83F5EB
S3150800034003FA05F424FA05F65E4012BF1643B2FA1C
S3150800035082F502FA05F4C5F120051EBF22FA05FC4E
S3150800036044EA0C04203556EA044C4FEA144418BFF4
S31508000370641C4FF000084FF00009904271EB030C23
S3150800038039D3002919BFB1FA81F701FA07F6B0FA8D
S3150800039080F700FA07F6C7F120071EBF20FA07FC08
S315080003A046EA0C062037B6FBF4FCA7EB0507103F18
S315080003B007F01F0BCBF120060CFA0BFB2CFA06F6FE
S315080003C044BFB3460026202FA4BF5E464FF0000B5D
S315080003D05BEA060C08BF4FF0010B19EB0B09ABFBE8
S315080003E0027C48EB0608C01B06FB02CC0BFB03CCC1
S315080003F071EB0C01C1E70B46024641464846BDE88B
S31508000400F08B13B54FF000004FF00001AFF30080FA
S31508000410BDE81C407047032A40F2308010F0030CF8
S3150800042000F0158011F8013BBCF1020F624498BF39
S3150800043011F801CB00F8013B38BF11F8013BA2F1D6
S31508000440040298BF00F801CB38BF00F8013B11F051
S31508000450030300F05780083AC0F0088051F8043BBF
S31508000460083A51F804CBA0E80810F5E7121D5CBF5E
S3150800047051F8043B40F8043BAFF30080D20724BF91
S3150800048011F8013B11F801CB48BF11F8012B24BF25
S3150800049000F8013B00F801CB48BF00F8012B704774
S315080004A002F0FF0343EA032242EA024200F05EB882
S315080004B04FF0000200B5134694469646203922BFEF
S315080004C0A0E80C50A0E80C50B1F12001BFF4F7AF3A
S315080004D0090728BFA0E80C5048BF0CC05DF804EB1C
S315080004E0890028BF40F8042B08BF704748BF20F88A
S315080004F0022B11F0804F18BF00F8012B7047704788
S315080005007047704710B5203AC0F00B80B1E8185014
S31508000510203AA0E81850B1E81850A0E81850BFF4DF
S31508000520F5AF5FEA027C24BFB1E81850A0E818507E
S3150800053044BF18C918C0BDE810405FEA827C24BFD2
S3150800054051F8043B40F8043B08BF7047D20728BF60
S3150800055031F8023B48BF11F8012B28BF20F8023BAF
S3150800056048BF00F8012B70474FF000020429C0F07D
S31508000570128010F0030C3FF49DAFCCF1040CBCF1D3
S31508000580020F18BF00F8012BA8BF20F8022BA1EB19
S315080005900C01FFF78FBF5FEAC17C24BF00F8012B6F
S315080005A000F8012B48BF00F8012B7047754600F08C
S315080005B02BF8AE4605006946534620F007008546E7
S315080005C018B020B5FFF79EFEBDE820404FF00006A4
S315080005D04FF000074FF000084FF0000B21F007011D
S315080005E0AC46ACE8C009ACE8C009ACE8C009ACE860
S315080005F0C0098D46704710B50446AFF30080204603
S31508000600BDE81040FFF709BE00487047B049002012
S3150800061001491820ABBEFEE726000200704700BF5E
S31508000620FEE7704772B600BFFEE70000F8B502465F
S315080006300B460025002400200021D6E0012606FAF4
S3150800064001F51E6806EA0504AC4274D11E7906F067
S315080006500306012E04D01E7906F00306022E13D1D6
S3150800066090684F000326BE40B0434F00DE68BE4088
S3150800067030439060506801268E40B0431E79C6F319
S3150800068000168E40304350601E7906F00306032E8E
S3150800069009D0D0684F000326BE40B0434F009E687D
S315080006A0BE403043D0601E7906F00306022E13D1F1
S315080006B0CF0802F1200656F827004E07F70E0F2638
S315080006C0BE40B0434F07FF0E1E69BE403043CF08F9
S315080006D002F1200646F8270010684F000326BE40A0
S315080006E0B0431E7906F003064F00BE403043106043
S315080006F05E6806F44036002E76D000BF00260096C7
S315080007003C4E366846F480463A4F3E603E4636686A
S3150800071006F48046009600BF00BF374E8F0856F88D
S3150800072027008E07370F0F26BE40B043334EB2421E
S3150800073002D1002624E057E0314EB24201D101260B
S315080007401EE0304EB24201D1022619E02E4EB242C8
S3150800075001D1032614E02D4EB24201D104260FE042
S315080007602B4EB24201D105260AE02A4EB24201D1E9
S31508000770062605E0284EB24201D1072600E00826E3
S315080007808F073F0FBE4030431B4E8F0846F82700A1
S31508000790224E3068A0435E6806F4801606B12043F0
S315080007A01E4E3060361D3068A0435E6806F400169B
S315080007B006B12043194E361D3060184E361F306874
S315080007C0A0435E6806F4003606B12043134E361F72
S315080007D03060361F3068A0435E6806F4803606B17E
S315080007E020430E4E083E3060491C1029FFF426AF00
S315080007F0F8BD0000443802400838014000000240B5
S315080008000004024000080240000C024000100240AA
S315080008100014024000180240001C0240083C014037
S315080008200AB1816101E00B048361704701480068E1
S31508000830704700000800002003480068034909784B
S31508000840084401490860704708000020100000208D
S3150800085010B50D48006840F400700B49086008465A
S31508000860006840F4806008600846006840F48070BC
S315080008700860032000F0E0F80F2000F007F800F009
S315080008805FF8002010BD0000003C02402DE9F04151
S3150800089088B004460027B84600BF002001902448C7
S315080008A0006840F00100224908600846006800F028
S315080008B00100019000BF00BF02A903A800F092F949
S315080008C0069F1FB900F0B6F9054602E000F0B2F936
S315080008D045001848B5FBF0F0A0F101084FF080403C
S315080008E01549086040F2E7311348C160C0F8048032
S315080008F0002101618160816100F054FC064696B9C9
S315080009000D4800F083FC06466EB91C2000F042F83C
S31508000910102C07D2002221461C2000F04FF8074869
S31508000920046000E00126304608B0BDE8F08100000A
S315080009304038024040420F00940000200C0000207E
S3150800094008B500BF002000901148006840F48040B8
S315080009500F4908600846006800F48040009000BF10
S3150800096000BF00BF00200090081F006840F08050BC
S31508000970091F08600846006800F08050009000BF14
S3150800098000BF00220F21901E00F018F808BD0000D5
S31508000990443802400146084600280DDB00BF00BF68
S315080009A000F01F0301229A4043099B0003F1E0234C
S315080009B0C3F8002100BF00BF00BF70472DE9F05FF4
S315080009C080460D461646002700F06EFE0746394655
S315080009D02A46334601F00700C0F1070ABAF1040FA8
S315080009E002D94FF0040A01E0C0F1070AD14600F126
S315080009F0040ABAF1070F02D24FF0000A01E0A0F18B
S31508000A00030AD4464FF0010A0AFA09FAAAF1010ABA
S31508000A100AEA020A0AFA0CFA4FF0010B0BFA0CFB67
S31508000A20ABF1010B0BEA030B4AEA0B0421464046DD
S31508000A3000F042FEBDE8F09F00BF00F00702064B3B
S31508000A4019684FF6FF031940044B0B4343EA02218A
S31508000A50014B196000BF70470CED00E00000FA0575
S31508000A6070B504460D460CB9012070BD584800689B
S31508000A7000F00700A84209D255490D7008460068DB
S31508000A8000F00700A84201D00120EEE7207800F028
S31508000A90020002281DD1207800F00400042805D1A0
S31508000AA04C48006840F4E0504A490860207800F055
S31508000AB00800082805D14748006840F460404549C1
S31508000AC008604448006820F0F000A16808434149DE
S31508000AD00860207800F00100A8B36068012807D1F3
S31508000AE03C4808380068C0F34040B8B90120BCE764
S31508000AF06068022802D06068032807D1354808389C
S31508000B000068C0F3406048B90120AEE731480838AC
S31508000B100068C0F3400008B90120A6E72D48006820
S31508000B2020F00300616808432A490860FFF77EFE43
S31508000B30064609E0FFF77AFE801B41F288318842B3
S31508000B4002D9032091E707E02248006800F00C006C
S31508000B506168B0EB810FEDD11D48006800F0070011
S31508000B60A84209D91A490D700846006800F007001E
S31508000B70A84201D0012078E7207800F00400042874
S31508000B8007D11448006820F4E050E1680843114989
S31508000B900860207800F00800082808D10D48006889
S31508000BA020F46040216940EAC1000A49086000F063
S31508000BB051F808490968C1F30311074A515CC8404E
S31508000BC00649086006480068FFF760FE00204CE703
S31508000BD0003C024008380240303700080400002074
S31508000BE00C0000200F2202600D4A126802F0030270
S31508000BF042600B4A126802F0F0028260084A1268E4
S31508000C0002F4E052C260064A126802F46042D20850
S31508000C100261044A126802F007020A60704700007F
S31508000C2008380240003C024001480068704700004E
S31508000C300400002000B5FFF7F7FF04490968C1F36F
S31508000C408221034A515CC84000BD000008380240B2
S31508000C50403700082DE9F047002400250026A14664
S31508000C602548006800F00C0020B1042805D00828A3
S31508000C703AD105E0DFF8849039E0DFF8849036E071
S31508000C801D48001F006800F03F041B48001F00684D
S31508000C9000F4800078B11A481749091F0968C1F39A
S31508000CA08811A0FB01700146224600233846FFF74B
S31508000CB03BFB05460EE011480F49091F0968C1F3B9
S31508000CC08811A0FB01700146224600233846FFF72B
S31508000CD02BFB05460848001F0068C0F30140401C6E
S31508000CE04600B5FBF6F902E0DFF8109000BF00BF3A
S31508000CF04846BDE8F0870000083802400024F400A2
S31508000D0000127A00F8B504460CB90120F8BD20781F
S31508000D1000F00100002874D0F948006800F00C00C3
S31508000D2004280DD0F648006800F00C00082813D1F6
S31508000D30F348001F006800F48000B0F5800F0BD15F
S31508000D40EF4808380068C0F34040002859D060686A
S31508000D50002856D10120D9E700BF6068B0F5803F6A
S31508000D6008D1E7480838006840F48030E449083973
S31508000D7008601EE06068B0F5A02F0DD1E04808387D
S31508000D80006840F48020DE49083908600846006893
S31508000D9040F4803008600CE0D9480838006820F430
S31508000DA08030D749083908600846006820F4802052
S31508000DB0086000BF606890B1FFF738FD054606E099
S31508000DC0FFF734FD401B642801D903209EE7CC4871
S31508000DD008380068C0F340400028F1D011E0FFF75A
S31508000DE025FD054606E0FFF721FD401B642801D9CD
S31508000DF003208BE7C24808380068C0F34040002843
S31508000E00F1D1207800F0020002285FD1BC480068C2
S31508000E1000F00C0058B1BA48006800F00C00082829
S31508000E201CD1B748001F006800F48000B0B9B44868
S31508000E3008380068C0F3400020B1E068012801D0F6
S31508000E40012063E7AE480838006820F0F8002169F9
S31508000E5040EAC100AA490839086037E0E06800B3EB
S31508000E600120A8490860FFF7E1FC054606E0FFF700
S31508000E70DDFC401B022801D9032047E7A0480838B3
S31508000E800068C0F340000028F1D09D480838006883
S31508000E9020F0F800216940EAC1009949083908603C
S31508000EA014E0002097490860FFF7C0FC054606E0F5
S31508000EB0FFF7BCFC401B022801D9032026E790480F
S31508000EC008380068C0F340000028F1D1207800F007
S31508000ED0080008282CD16069A8B101208A49086051
S31508000EE0FFF7A4FC054606E0FFF7A0FC401B022816
S31508000EF001D903200AE782486C300068C0F3400035
S31508000F000028F1D014E000207F490860FFF78EFC26
S31508000F10054606E0FFF78AFC401B022801D9032094
S31508000F20F4E677486C300068C0F340000028F1D139
S31508000F30207800F00400042870D100277048383063
S31508000F40006800F0805090B900BF002000906C48FF
S31508000F503830006840F080506949383108600846E2
S31508000F60006800F08050009000BF00BF0127674866
S31508000F70006800F48070B0B96448006840F4807076
S31508000F8062490860FFF752FC054606E0FFF74EFC8B
S31508000F90401B022801D90320B8E65C48006800F423
S31508000FA080700028F2D000BFA068012808D15448F4
S31508000FB06830006840F001005149683108601DE05A
S31508000FC0A06805280DD14E486830006840F0040036
S31508000FD04B49683108600846006840F0010008601F
S31508000FE00CE047486830006820F001004449683141
S31508000FF008600846006820F00400086000BFA06882
S31508001000A8B1FFF713FC054609E0FFF70FFC401BE4
S3150800101041F28831884202D9032077E626E038482B
S3150800102068300068C0F340000028EED013E0FFF7F0
S31508001030FDFB054608E0FFF7F9FB401B41F2883146
S31508001040884201D9032061E62D4868300068C0F35C
S3150800105040000028EFD1012F07D129483830006811
S3150800106020F0805026493831086000BFA069002862
S3150800107045D02348006800F00C0008285DD0A06918
S31508001080022845D100201F490866FFF7CFFB054611
S3150800109006E0FFF7CBFB401B022801D9032035E603
S315080010A0174808380068C0F340600028F1D1D4E931
S315080010B007010843616A40EA81110122A06AC2EB6E
S315080010C0500041EA00412C20005D41EA00600C49CD
S315080010D0091F086001200B490866FFF7A7FB0546AC
S315080010E006E0FFF7A3FB401B022801D903200DE603
S315080010F0034808380068C0F340600028F1D049E08A
S315080011000838024000004742800E474200700040FF
S31508001110002021490866FFF789FB054606E0FFF728
S3150800112085FB401B022801D90320EFE51B48006810
S31508001130C0F340600028F2D12CE0A069012800D154
S31508001140E4E51648001D0668A069012820D006F4C3
S315080011508001E06981421BD106F03F01206A814285
S3150800116016D147F6C0703040616AB0EB811F0FD1C7
S3150800117006F440310122A06AC2EB5000B1EB004FE1
S3150800118006D106F070612C20005DB1EB006F01D02E
S315080011900120BBE50020B9E50000474200380240BF
S315080011A07047704710B504460CB9012010BD94F875
S315080011B03D0028B9002084F83C00204600F025F8B8
S315080011C0022084F83D00211D206800F0F7F901206F
S315080011D084F8460000BF84F83E0001213F200155EF
S315080011E0402001554120015500BF00BF012084F869
S315080011F0420043200155442001554520015500BFB2
S31508001200012084F83D000020D0E77047014691F898
S315080012103D00012801D001207047022081F83D00D9
S315080012200868C06840F001000B68D8601A4B086867
S3150800123098421BD00868B0F1804F17D0174B086842
S31508001240984213D0164B086898420FD0154B086879
S3150800125098420BD0144B0868984207D0134B08687D
S31508001260984203D0124B086898420CD108688068E7
S3150800127000F00702062A0CD00868006840F0010052
S315080012800B68186005E00868006840F001000B6804
S3150800129018600020C0E7000000000140000400407C
S315080012A000080040000C00400004014000400140D6
S315080012B000180040704770B504462068C568206865
S315080012C0066906F00200022819D105F00200022874
S315080012D015D1401F216808610120207720688069A0
S315080012E000F0030018B12046FFF7E4FF05E02046AA
S315080012F000F097F8204600F095F80020207706F0D1
S315080013000400042819D105F00400042815D1C043A7
S3150800131021680861022020772068806900F44070FF
S3150800132018B12046FFF7C6FF05E0204600F079F819
S31508001330204600F077F80020207706F008000828F5
S3150800134019D105F00800082815D1C043216808619D
S31508001350042020772068C06900F0030018B12046F1
S31508001360FFF7A8FF05E0204600F05BF8204600F0EE
S3150800137059F80020207706F01000102819D105F03A
S315080013801000102815D1C04321680861082020776D
S315080013902068C06900F4407018B12046FFF78AFF3C
S315080013A005E0204600F03DF8204600F03BF8002016
S315080013B0207706F0010048B105F0010030B16FF062
S315080013C0010021680861204600F02DF806F080002B
S315080013D0802809D105F08000802805D1C0432168FE
S315080013E008612046FFF7DCFE06F04000402809D1D8
S315080013F005F04000402805D1C04321680861204611
S3150800140000F01AF806F02000202809D105F020007F
S31508001410202805D1C043216808612046FFF7C1FE90
S3150800142070BD7047704710B504462068B0F1804F0C
S3150800143001D1FFF701FA10BD704700BFFEE70000B3
S3150800144000B587B0142102A8FFF732F800BF0020C4
S3150800145001901748006840F0800015490860084662
S31508001460006800F08000019000BF00BF00BF0020A8
S3150800147001900846006840F00200086008460068C7
S3150800148000F00200019000BF00BF0122891409483C
S31508001490FFF7C6F94FF4805002900120039004909C
S315080014A00220059002A90348FFF7C0F807B000BD5F
S315080014B0303802400004024000BFFEE700BFFEE7E6
S315080014C000BF012000F030F9FBE710B54FF0E0202F
S315080014D0006901F0BFFE012801D001F009FB10BD2B
S315080014E000B593B0302107A8FEF7E2FF142102A841
S315080014F0FEF7DEFF00BF002001902548006840F097
S315080015008050234908600846006800F08050019022
S3150800151000BF00BF00BF002001901E48006840F4CD
S3150800152080401C4908600846006800F48040019025
S3150800153000BF00BF0220079001200A9010200B90E0
S3150800154002200D9000210E9108210F91A8211091DB
S31508001550022111910421129107A8FFF7D3FB08B1C4
S31508001560FFF760F80F2002900220039000200490F5
S315080015704FF4A05005904FF480500690052102A81C
S31508001580FFF76EFA08B1FFF74DF813B000BD00007B
S3150800159040380240007000400348006840F470007C
S315080015A0014908607047000088ED00E010B5024860
S315080015B0FFF781FE10BD00009400002010B50268F8
S315080015C02D4B98420ED0B0F1804F0BD02B4B984242
S315080015D008D02B4B984205D02A4B984202D02A4B6A
S315080015E0984203D122F070024B681A43224B984264
S315080015F020D0B0F1804F1DD0204B98421AD0204BF6
S31508001600984217D01F4B984214D01F4B984211D0BE
S315080016101E4B98420ED01E4B98420BD01D4B98423B
S3150800162008D01D4B984205D01C4B984202D01C4B43
S31508001630984203D122F44072CB681A4322F0800301
S315080016404C6943EA040202608B68C3620B688362D2
S31508001650094B984202D00C4B984201D10B6903639F
S3150800166001234361036903F001031BB1036923F0F6
S315080016700103036110BD00000000014000040040A2
S3150800168000080040000C00400004014000400140F2
S31508001690004401400048014000180040001C00407A
S315080016A00020004000BFFEE702480068C0F30220A1
S315080016B0704700000CED00E010B5002804DB0A07AF
S315080016C0130E054A135406E00A07140E034A00F0DF
S315080016D00F031B1FD45410BD00E400E018ED00E012
S315080016E0EFF3058070470000FFF7B2F8FFF7F8FE42
S315080016F0FFF7A6FE00F028F8074A0021074800F081
S3150800170069F807490860012211030648FFF788F8B7
S3150800171000F030F800BFFEE70C370008C1140008D7
S31508001720000000200004024070B50546FFF7D8FF08
S3150800173010B16FF0050404E0002415B1284600F046
S31508001740FBFF204670BD000010B5FFF7C9FF10B1BA
S315080017506FF0050409E00648006820B9012004492D
S315080017600860002401E04FF0FF34204610BD000059
S315080017701400002070B5FFF7B3FF10B16FF0050431
S315080017801FE011480068012819D100BF801F0021F9
S31508001790002804DB0A07130E0C4A135406E00A074E
S315080017A0150E0B4A00F00F031B1FD55400BF00BFD0
S315080017B002200549086001F03BF8002401E04FF0DB
S315080017C0FF34204670BD00001400002000E400E04D
S315080017D018ED00E02DE9FF478046894614460020AB
S315080017E00390FFF77DFF00284ED1B8F1000F4BD0CC
S315080017F0802618258246471E44B3206808B1D4F8C7
S3150800180000A0A06900B1A5692DB1382D03D82079AB
S3150800181000F0010018B1002004B0BDE8F087606947
S3150800182008B160698608A06840B1E0685C2805D3FD
S31508001830206918B1606908B1012708E0A06830B9C5
S31508001840E06820B9206910B9002700E00027012FB9
S315080018500CD12169A0684B463246CDE90051029069
S315080018605146404601F098FC03900DE067B903A87D
S31508001870B2B24B465146CDE90050404601F05AFCFB
S31508001880012801D0002003900398C5E72DE9F0410F
S3150800189005460E461648076816480068001D00F0FB
S315080018A0C3FD681C38B936B112480168091D1248CB
S315080018B000F010FE1AE07C190E4800684460BC422D
S315080018C007D20C480168091D0C48006800F0E8FDBD
S315080018D00CE008480168091D0948006800F0E0FDA9
S315080018E008480068844201D206480460BDE8F081D1
S315080018F05800002044000020844800204C000020A6
S31508001900480000207400002010B5044600F0EEFDE3
S3150800191024480068401C234908602348006840B9E9
S31508001920214804600846006801280DD100F0FCF93A
S315080019300AE01E48006838B91B480068C06AE16AB0
S31508001940884201D81848046019480068401C18499C
S3150800195008600846006860641649E06A09688842B3
S3150800196002D91449E06A0860E16A01EB8101124A6A
S3150800197002EB8100211D00F0ADFD00F0E1FD0B48F2
S31508001980006868B108480068C06AE16A884207D2F8
S315080019904FF0805009490860BFF34F8FBFF36F8F30
S315080019A010BD000054000020440000206000002004
S315080019B0700000205C000020D443002004ED00E005
S315080019C008B500F093FD12480068E8B9114800F020
S315080019D057FD114800F054FD0E48104908600E489E
S315080019E00F49086000200F4B0F4A102100900A206B
S315080019F001F098F8064908600846006820B10BA16E
S31508001A000348006800F05CFE00F09AFD08BD00007F
S31508001A108800002098480020AC480020800000205C
S31508001A2084000020C048002010490020546D7251DF
S31508001A300000000010B516E000F058FD0C48C0681C
S31508001A40C468201D00F0F0FC0A480068401E0949D9
S31508001A50086009480068401E0749086000F070FDE4
S31508001A60204600F05FF8044800680028E4D110BD5D
S31508001A7070480020540000205000002070B504462D
S31508001A800D46206C70B1216CE0680144E160D4E930
S31508001A900210884201D32168E1602846226CE16879
S31508001AA0FEF7B9FC70BD2DE9F04104460F46154610
S31508001AB04FF00008A66B206C48B9206800282CD186
S31508001AC0A06801F07FFC80460020A06025E07DB973
S31508001AD03946226C6068FEF79EFC216C60680844F3
S31508001AE06060D4E90101884217D32068606014E079
S31508001AF03946226CE068FEF78EFC216CE068411AD4
S31508001B00E1602168E068884203D2216CA068411A26
S31508001B10E160022D01D106B1761E701CA063404615
S31508001B20BDE8F08110B5044694F8590030B9206B29
S31508001B3000F024FD204600F021FD1AE094F8590033
S31508001B40012803D1204600F019FD12E094F8590047
S31508001B50022801D1012000E0002050B900BF502022
S31508001B6080F31188BFF34F8FBFF36F8F00BF00BF9D
S31508001B70FEE710BD0146084A126812680AB9012232
S31508001B8000E000220A600A6822B9034A1268D2688D
S31508001B90106800E0002070478000002030B54FF440
S31508001BA07053174800F007042CB1C01D20F0070039
S31508001BB0134C041B1B1B0246124C22600024114DB9
S31508001BC06C60D018083820F007000F4C20600024FD
S31508001BD00D4D2D686C600C4D2D682C601146441A0D
S31508001BE04C60094C24680C60084D4C682C60084D04
S31508001BF04C682C604FF00044064D2C6030BD000048
S31508001C00940700201800002020000020280000204B
S31508001C10240000203400002000BFFFF70BFF064811
S31508001C2000680128F9D94FF0805004490860BFF3CD
S31508001C304F8FBFF36F8FF0E7D443002004ED00E029
S31508001C402DE9F04106460D4617469846069C0DB9FD
S31508001C50246000E02760E66325640121204600F041
S31508001C60D1FF84F84C80BDE8F0812DE9F05F82460B
S31508001C700E4690469B460A9F0C9C4FEA8801A52271
S31508001C80206BFEF70DFCA8F10100216B01EB800922
S31508001C9029F0070909F0070008B9012000E000202B
S31508001CA050B900BF502080F31188BFF34F8FBFF3A0
S31508001CB06F8F00BF00BFFEE786B1002507E0715DA4
S31508001CC004F134004155705D00B902E06D1C102D19
S31508001CD0F5D300BF00214320015502E0002084F817
S31508001CE03400382F00D33727E762E76400202065E1
S31508001CF0201D00F0D2FB04F1180000F0CEFB246191
S31508001D00C7F13800A06164620020606584F8580055
S31508001D105A465146484600F071FB20600B9808B1B8
S31508001D200B980460BDE8F09F10B5002407E004EBAB
S31508001D3084010F4A02EB810000F0A2FB641C382CD8
S31508001D40F5D30C4800F09CFB0B4800F099FB0B48B8
S31508001D5000F096FB0A4800F093FB0A4800F090FB57
S31508001D6004480949086004480849086010BD00008D
S31508001D70D443002034480020484800205C4800200E
S31508001D807048002084480020480000204C000020AD
S31508001D9010B50146164800E0006803688B42FBD37D
S31508001DA00246436813448B4204D143684C68234473
S31508001DB0436001460A464B6813440468A34211D19E
S31508001DC00C4C03682468A34208D04B68046864680E
S31508001DD023444B6003681B680B6005E0054B1B68D2
S31508001DE00B6001E003680B60884200D0016010BDFB
S31508001DF018000020200000202DE9F04104460D4679
S31508001E0016461F464FF0000865602461B5420CD897
S31508001E10F01BA169884202D34FF0010811E0211D89
S31508001E200948006800F03CFB0BE0BE4204D2BD4204
S31508001E3002D34FF0010804E0211D0448006800F0B1
S31508001E402FFB4046BDE8F08184000020800000207A
S31508001E5070B5054600F04AFBA86B08B9012400E0F6
S31508001E60002400F06DFB204670BD70B5054600F0F5
S31508001E703DFBA86BE96B884201D1012400E00024F0
S31508001E8000F05EFB204670BDF8B505460F461A48B9
S31508001E900068C068C468201D00F0C6FA94F82800D7
S31508001EA000F00400E8B1A06941192B463A462046DD
S31508001EB0FFF7A2FFD8B1002003462A460146009044
S31508001EC0204601F0DBFB064656B900BF502080F3DA
S31508001ED01188BFF34F8FBFF36F8F00BF00BFFEE7B8
S31508001EE005E094F8280020F0010084F82800204630
S31508001EF0216A8847F8BD000080000020F0B587B049
S31508001F00A0E00398002811DA04AE56B900BF5020A5
S31508001F1080F31188BFF34F8FBFF36F8F00BF00BFE9
S31508001F20FEE7D6E90020B168904700BF039800286D
S31508001F30E6DB059C606908B9012000E0002010B9BD
S31508001F40201D00F071FA02A800F0DEF80546039895
S31508001F500A2875D2DFE800F0090507394163060843
S31508001F603A4200BF00BF00BF00BF94F8280040F007
S31508001F70010084F828000498A269811803462A46B5
S31508001F802046FFF739FFF8B12046216A884794F8BA
S31508001F90280000F00400B8B1002000900498A16958
S31508001FA0421800231946204601F068FB074657B930
S31508001FB000BF502080F31188BFF34F8FBFF36F8F98
S31508001FC000BF00BFFEE700BF3BE000BF94F8280053
S31508001FD020F0010084F8280033E000BF94F82800B8
S31508001FE040F0010084F828000498A061A06908B1AF
S31508001FF0012000E0002050B900BF502080F311886E
S31508002000BFF34F8FBFF36F8F00BF00BFFEE7A06916
S3150800201041192B462A462046FFF7EEFE11E094F8B2
S31508002020280000F0020018B9204600F0A7FA05E0DB
S3150800203094F8280020F0010084F8280001E0FFE762
S3150800204000BF00BF002203A90448006800F078FF1B
S3150800205000287FF456AF07B0F0BD000088000020C6
S31508002060F8B505460C4600F03FFC684600F04CF80B
S315080020700646009820BB44B9B54206D801F040FA96
S3150800208031462846FFF700FF1CE03CB10E480068C1
S31508002090006808B9012000E000200446A91B224672
S315080020A00A48006800F022FB01F02AFA50B94FF0FE
S315080020B0805007490860BFF34F8FBFF36F8F01E069
S315080020C001F01EFAF8BD00008400002088000020F8
S315080020D004ED00E00A490968096809B9012100E028
S315080020E0002121B14FF0FF31064A116006E004498C
S315080020F00968C968C868034A4168116070470000E2
S31508002100480000207400002070B5044601F0B2F8BB
S31508002110054607480068854204D200F00BF80120FE
S31508002120206001E00020206001480560284670BD57
S31508002130900000202DE9F84334E025480068C0687F
S31508002140056823480068C068C468201D00F06CF95B
S315080021502046216A884794F8280000F0040008B34E
S31508002160A0694619AE4207D966602461211D184840
S31508002170006800F095F915E0002003462A46014656
S315080021800090204601F07AFA074657B900BF50205A
S3150800219080F31188BFF34F8FBFF36F8F00BF00BF67
S315080021A0FEE700BF0A480068006808B9012000E099
S315080021B000200028C1D00648D0F8008005480068ED
S315080021C0034908600348C0F80080BDE8F8830000AA
S315080021D080000020840000200E480068401C08B9D2
S315080021E0012000E0002050B900BF502080F311887C
S315080021F0BFF34F8FBFF36F8F00BF00BFFEE700BF6F
S31508002200502080F31188BFF34F8FBFF36F8F00BF45
S3150800221000BFFEE73800002008B500BF6846FFF794
S31508002220A9FC044620460099FFF71AFFFFF766FE49
S31508002230F4E770B5044600F059F994F9455010E0F2
S31508002240606A08B9012000E0002038B904F12400CA
S3150800225001F00AF918B100F0A9FA00E003E0681ED7
S3150800226045B2002DECDC00BFFF2084F8450000F0E5
S3150800227067F900F03BF994F9445010E0206908B971
S31508002280012000E0002048B904F1100001F0ECF844
S3150800229008B100F08BFA681E45B200E001E0002D97
S315080022A0ECDC00BFFF2084F8440000F049F970BD5B
S315080022B02DE9F04104464FF0000800F015FB4948A7
S315080022C0006808B9FFF76AFC4748006820400028FC
S315080022D070D1D4B1083404F00700B0B104F0070097
S315080022E0C0F10800044404F0070008B9012000E022
S315080022F0002050B900BF502080F31188BFF34F8FDC
S31508002300BFF36F8F00BF00BFFEE7002C52D03748DF
S31508002310006884424ED8364E3046056801E02E469F
S315080023202D686868A04202D228680028F7D12D488F
S31508002330006885423ED0306800F108082868306099
S315080023406868001B102819D92F1907F0070008B963
S31508002350012000E0002050B900BF502080F311880A
S31508002360BFF34F8FBFF36F8F00BF00BFFEE76868EC
S31508002370001B78606C603846FFF70AFD1B496868E1
S315080023800968081A19490860084600681949096859
S31508002390884203D2154800681649086012496868D9
S315080023A00968084368600020286013480068401CD4
S315080023B01149086001F0A4F808F0070008B90120DF
S315080023C000E0002050B900BF502080F31188BFF309
S315080023D04F8FBFF36F8F00BF00BFFEE74046BDE8D3
S315080023E0F081000020000020340000202400002096
S315080023F018000020280000202C000020001F4FF0A5
S3150800240080730360001F21F001030360001F054B62
S31508002410036014380260001F6FF00203036020385F
S3150800242070470000D921000801460A69D1E9013040
S315080024309860D1E9010358605068884201D18868DC
S315080024405060002008611068401E106010687047D0
S31508002450034B0360034B0B60802313607047000037
S31508002460DC00002038010020034B0360034B0B609F
S315080024704FF48073136070473803002094030020DC
S3150800248000F1080141604FF0FF31816000F1080159
S31508002490C160016100210160704700210161704738
S315080024A010B502460B685C1C0CB9106907E002F10E
S315080024B0080000E04068446824689C42FAD94468E9
S315080024C04C604C68A160886041600A611468641CAD
S315080024D0146010BD42684A6093688B6093685960BF
S315080024E09160086103685B1C0360704700BF502059
S315080024F080F31188BFF34F8FBFF36F8F00BF0E486D
S315080025000068401C0C49086008460068012812D17A
S315080025100A480068C0B208B9012000E0002050B996
S3150800252000BF502080F31188BFF34F8FBFF36F8F22
S3150800253000BF00BFFEE770473800002004ED00E04A
S315080025400D48006850B900BF502080F31188BFF3CA
S315080025504F8FBFF36F8F00BF00BFFEE706480068C6
S31508002560401E054908600846006820B9002080F327
S31508002570118800BF00BF70473800002070B50646B6
S315080025803546002E44D0083D2C4622496068096825
S31508002590084008B1012000E0002050B900BF5020D3
S315080025A080F31188BFF34F8FBFF36F8F00BF00BF53
S315080025B0FEE7206808B9012000E0002050B900BFF6
S315080025C0502080F31188BFF34F8FBFF36F8F00BF82
S315080025D000BFFEE70F49606809680840C0B1206877
S315080025E0B0B90C49606809688843606000F07CF9F6
S315080025F00949606809680844074908602046FFF7E2
S31508002600C7FB06480068401C0449086000F078FFCC
S3150800261070BD000034000020240000203000002097
S3150800262000204FF0E02108618861064800684FF4F1
S315080026307A71B0FBF1F0401E4FF0E02148610720A7
S31508002640086170470400002070B5FDF749FE04468E
S31508002650102C16D304F1E02090F8F05315480078B2
S31508002660854201DB012000E0002050B900BF502060
S3150800267080F31188BFF34F8FBFF36F8F00BF00BF82
S31508002680FEE70D48006800F4E0600C4909688842D6
S3150800269001D8012000E0002050B900BF502080F387
S315080026A01188BFF34F8FBFF36F8F00BF00BFFEE7E0
S315080026B070BD00003C0000200CED00E0400000204A
S315080026C0024600200BE0084B53F8303033B9064B6E
S315080026D043F8301003EBC0035A6002E0401C082898
S315080026E0F1D300BF70470000944300202DE9F04164
S315080026F005460E4617462C46FFF7F8FE94F94400A1
S31508002700401C10B9002084F8440094F94500401C88
S3150800271010B9002084F84500FFF712FFA06B28B90E
S315080027203A46314604F1240000F062F82046FFF7E5
S3150800273080FDBDE8F081000070B504460025D4B1DF
S315080027401248006808B9012000E0002050B900BF0F
S31508002750502080F31188BFF34F8FBFF36F8F00BFF0
S3150800276000BFFEE700F0C0F800212046FFF78EF80C
S3150800277000F0C6FE05463DB94FF080500449086092
S31508002780BFF34F8FBFF36F8F70BD00007C00002032
S3150800279004ED00E0034909680160034909684160DE
S315080027A0704700006C0000205800002001200149F5
S315080027B0086070476800002070B504460D4654B995
S315080027C000BF502080F31188BFF34F8FBFF36F8F80
S315080027D000BF00BFFEE70548016818312046FFF72D
S315080027E05FFE01212846FFF751F870BD440000201E
S315080027F070B505460E46144655B900BF502080F3FD
S315080028001188BFF34F8FBFF36F8F00BF00BFFEE77E
S315080028100648016818312846FFF75CFE0CB14FF0F0
S31508002820FF3621463046FFF731F870BD44000020D8
S3150800283010B586B000200590049003AA04A905A83F
S31508002840FFF706FE0022DDE904101346CDE9002154
S3150800285002901EA11F48039A00F09EFC1E490860BC
S315080028600846006808B1012400E00024012C02D1C2
S3150800287000F0C8FE0446012C15D100BF502080F395
S315080028801188BFF34F8FBFF36F8F00BF4FF0FF3034
S3150800289012490860012012490860002011490860A1
S315080028A000F072F810E0601C08B1012000E000207A
S315080028B050B900BF502080F31188BFF34F8FBFF384
S315080028C06F8F00BF00BFFEE706B010BD49444C45F8
S315080028D000000000191C0008780000207400002081
S315080028E0600000205800002002480068401C01498A
S315080028F0086070477C0000201E48006818B1012057
S315080029001D49086034E000201B4908601B4801681F
S315080029100CE051B900BF502080F31188BFF34F8FE8
S31508002920BFF36F8F00BF00BFFEE7491E01EB8100B2
S31508002930134A52F8200008B9012000E000200028B8
S31508002940E7D101EB81020E4B03EB82004268526825
S31508002950426000F108024368934202D14268526815
S3150800296042604268D268074B1A600448016000BF9B
S31508002970704700007C000020680000205C000020F2
S31508002980D4430020440000201CB552480068524930
S31508002990884201D0012000E0002050B900BF502035
S315080029A080F31188BFF34F8FBFF36F8F00BF00BF4F
S315080029B0FEE7484800684849491E884201D0012078
S315080029C000E0002050B900BF502080F31188BFF303
S315080029D04F8FBFF36F8F00BF00BFFEE73F49084622
S315080029E000780190FF200A4610700846007800908B
S315080029F09DF8000000F0F0009DF80020904201D1FB
S31508002A00012000E0002050B900BF502080F3118853
S31508002A10BFF34F8FBFF36F8F00BF00BFFEE79DF870
S31508002A20000000F050002E4A107007202D4A106052
S31508002A3009E02C480068401E2A4A10609DF80000EC
S31508002A404006000E00909DF8000000F080008028E7
S31508002A50EFD024480068C0F10700042801D10120FE
S31508002A6000E0002050B900BF502080F31188BFF362
S31508002A704F8FBFF36F8F00BF00BFFEE7194800688E
S31508002A800002184A10601046008800F4E0601060E2
S31508002A90124A019810700F482030006840F4700000
S31508002AA00C49203108600846006840F0704008600C
S31508002AB0FFF7B6FD00200C490860FDF7D9FB0B4867
S31508002AC0006840F0404009490860FDF7BDFB00205A
S31508002AD01CBD000000ED00E071C20F4100E400E0FB
S31508002AE03C000020400000203800002034EF00E0C1
S31508002AF010B500BF502080F31188BFF34F8FBFF386
S31508002B006F8F00BF00F0BCFB18B14FF0805004492E
S31508002B10086000BF002080F3118800BF10BD0000C8
S31508002B2004ED00E02DE9F84380460E4617461D469B
S31508002B30DDF82090B8F1000F01D0012000E0002058
S31508002B4050B900BF502080F31188BFF34F8FBFF3F1
S31508002B506F8F00BF00BFFEE70DB1012000E0002027
S31508002B6050B900BF502080F31188BFF34F8FBFF3D1
S31508002B706F8F00BF00BFFEE707B10EB1012000E06E
S31508002B80002050B900BF502080F31188BFF34F8F43
S31508002B90BFF36F8F00BF00BFFEE707B90EB901206C
S31508002BA000E0002050B900BF502080F31188BFF321
S31508002BB04F8FBFF36F8F00BF00BFFEE75020009016
S31508002BC00098502801D1012000E0002050B900BF2C
S31508002BD0502080F31188BFF34F8FBFF36F8F00BF6C
S31508002BE000BFFEE700BF2C464CB1012084F8460022
S31508002BF04B463A46314640460094FFF721F82046B0
S31508002C00BDE8F88370B505460E462C4654B900BF94
S31508002C10502080F31188BFF34F8FBFF36F8F00BF2B
S31508002C2000BFFEE7FFF762FCD4E90F12206801FB3C
S31508002C300200A0600020A06320686060E06B401E70
S31508002C40226C216800FB0211E160FF2084F8440031
S31508002C5084F845009EB9206908B9012000E00020E3
S31508002C60A8B904F1100000F0FFFB80B14FF08050C6
S31508002C7009490860BFF34F8FBFF36F8F07E004F170
S31508002C801000FFF7FDFB04F12400FFF7F9FBFFF73F
S31508002C9057FC012070BD000004ED00E02DE9FF435C
S31508002CA083B0064688461D464FF00009344654B997
S31508002CB000BF502080F31188BFF34F8FBFF36F8F8B
S31508002CC000BF00BFFEE7B8F1000F01D1206C08B9BC
S31508002CD0012000E0002050B900BF502080F3118881
S31508002CE0BFF34F8FBFF36F8F00BF00BFFEE7022D04
S31508002CF002D1E06B012801D1012000E0002050B983
S31508002D0000BF502080F31188BFF34F8FBFF36F8F3A
S31508002D1000BF00BFFEE700F09DFA08B9059808B99C
S31508002D20012000E0002050B900BF502080F3118830
S31508002D30BFF34F8FBFF36F8F00BF00BFFEE700BF23
S31508002D40FFF7D4FBA06BE16B884201D3022D28D193
S31508002D502A4641462046FEF7A6FE0746606A08B997
S31508002D60012000E0002068B904F1240000F07CFB93
S31508002D7088B14FF0805032490860BFF34F8FBFF3D8
S31508002D806F8F08E03FB14FF080502D490860BFF3C0
S31508002D904F8FBFF36F8FFFF7D3FB012007B0BDE856
S31508002DA0F083059818B9FFF7CBFB0020F6E7B9F1D1
S31508002DB0000F04D101A8FFF7EDFC4FF00109FFF75A
S31508002DC0BFFBFFF791FDFFF791FB94F94400401C08
S31508002DD010B9002084F8440094F94500401C10B945
S31508002DE0002084F84500FFF7ABFB05A901A800F011
S31508002DF05BF9F0B92046FFF738F8A0B104F11000E6
S31508002E000599FFF7D9FC2046FFF713FA00F078FB7F
S31508002E10002895D14FF0805009490860BFF34F8FBD
S31508002E20BFF36F8F8CE72046FFF703FA00F068FBC5
S31508002E3086E72046FFF7FDF900F062FB0020ADE7C4
S31508002E4004ED00E02DE9F84F07468A4690461E46EF
S31508002E503C4654B900BF502080F31188BFF34F8F0A
S31508002E60BFF36F8F00BF00BFFEE7BAF1000F01D1B5
S31508002E70206C08B9012000E0002050B900BF50209E
S31508002E8080F31188BFF34F8FBFF36F8F00BF00BF6A
S31508002E90FEE7022E02D1E06B012801D1012000E0F5
S31508002EA0002050B900BF502080F31188BFF34F8F20
S31508002EB0BFF36F8F00BF00BFFEE7FFF7C5FB00BF7C
S31508002EC05021EFF3118081F31188BFF34F8FBFF3C1
S31508002ED06F8F00BF0546A06BE16B884201D3022EB7
S31508002EE025D194F945B0A06B00903246514620464C
S31508002EF0FEF7D9FD0BF1010088B9606A08B901200F
S31508002F0000E0002050B904F1240000F0ADFA28B121
S31508002F10B8F1000F02D00120C8F8000004E00BF158
S31508002F20010040B284F845004FF0010901E04FF076
S31508002F30000900BF85F3118800BF4846BDE8F88F31
S31508002F402DE9F74183B005460E464FF000082C469A
S31508002F5054B900BF502080F31188BFF34F8FBFF3D9
S31508002F606F8F00BF00BFFEE70EB9206C08B90120BD
S31508002F7000E0002050B900BF502080F31188BFF34D
S31508002F804F8FBFF36F8F00BF00BFFEE700F062F9F7
S31508002F9008B9059808B9012000E0002050B900BF1B
S31508002FA0502080F31188BFF34F8FBFF36F8F00BF98
S31508002FB000BFFEE700BFFFF799FAA76BF7B13146E6
S31508002FC02046FEF75BFD781EA063206908B901203C
S31508002FD000E0002060B904F1100000F045FA38B1AD
S31508002FE04FF080502F490860BFF34F8FBFF36F8FA4
S31508002FF0FFF7A6FA012006B0BDE8F081059818B9D2
S31508003000FFF79EFA0020F6E7B8F1000F04D101A8F1
S31508003010FFF7C0FB4FF00108FFF792FAFFF764FCD1
S31508003020FFF764FA94F94400401C10B9002084F8AC
S31508003030440094F94500401C10B9002084F8450066
S31508003040FFF77EFA05A901A800F02EF8F0B9204688
S31508003050FEF7FEFEA0B104F124000599FFF7ACFBCC
S315080030602046FFF7E6F800F04BFA0028A3D14FF008
S3150800307080500C490860BFF34F8FBFF36F8F9AE7F4
S315080030802046FFF7D6F800F03BFA94E72046FFF70C
S31508003090D0F800F035FA2046FEF7DAFE00288AD086
S315080030A00020A8E704ED00E070B505460C4655B9C2
S315080030B000BF502080F31188BFF34F8FBFF36F8F87
S315080030C000BF00BFFEE754B900BF502080F3118847
S315080030D0BFF34F8FBFF36F8F00BF00BFFEE7FFF749
S315080030E005FA124802686868131A2068401C08B96D
S315080030F0002617E00E4928680968884204D06868DF
S31508003100904201D801260DE02068984207D9206828
S31508003110C01A20602846FFF73DFB002602E0002083
S3150800312020600126FFF70CFA304670BD58000020D3
S315080031306C0000202DE9FF4F85B08046894617466A
S31508003140DDE912ABB800FFF7B3F8064656B15C20C6
S31508003150FFF7AEF804460CB1266304E03046FFF7E5
S315080031600DFA00E000248CB1002084F85900CDE95E
S3150800317000ABCDE902403A4649464046089BFEF771
S3150800318074FD2046FEF7C0FB012501E04FF0FF3530
S31508003190284609B0BDE8F08F2DE9F04F85B00746FF
S315080031A0884691469A46DDE90EB6109C0EB1012076
S315080031B000E0002050B900BF502080F31188BFF30B
S315080031C04F8FBFF36F8F00BF00BFFEE70CB1012022
S315080031D000E0002050B900BF502080F31188BFF3EB
S315080031E04F8FBFF36F8F00BF00BFFEE75C200390D1
S315080031F003985C2801D1012000E0002050B900BFE7
S31508003200502080F31188BFF34F8FBFF36F8F00BF35
S3150800321000BFFEE700BFB4B1AEB125462C462E630B
S31508003220022085F85900002004A953464A46CDE9EC
S3150800323000B1CDE9025041463846FEF716FD28464C
S31508003240FEF762FB01E000200490049805B0BDE893
S31508003250F08F00000549096809B9012005E004490D
S31508003260096809B9022000E00020704760000020C4
S315080032707C000020014908687047000058000020BB
S315080032802DE9F0414FF000084348006800287BD13B
S3150800329042480068451C4148056015BB404800681F
S315080032A0006808B9012000E0002050B900BF50208E
S315080032B080F31188BFF34F8FBFF36F8F00BF00BF36
S315080032C0FEE73748076837480068354908603548D3
S315080032D0076035480068401C33490860FEF7FAFE67
S315080032E000BF3248006885423BD300BF2C480068BF
S315080032F0006808B9012000E0002020B14FF0FF3037
S315080033002A4908602CE026480068C068C4686668D0
S31508003310B54202D22548066022E0201DFFF784F850
S31508003320A06A18B104F11800FFF77EF82049E06A90
S315080033300968884202D91E49E06A0860E16A01EB19
S3150800334081011C4A02EB8100211DFFF7C3F81A49C7
S31508003350E06A0968C96A8842C8D34FF00108C5E718
S3150800336000BF15480068C06A00EB8000114951F893
S315080033702000012801D94FF001081048006808B15B
S315080033804FF0010805E0FFE70D480068401C0C49AE
S3150800339008604046BDE8F0817C0000205800002007
S315080033A0480000204C0000206C000020740000201B
S315080033B05C000020D4430020440000206800002060
S315080033C06400002070B505462C460026002D43D023
S315080033D022480068844201D1012000E0002050B94B
S315080033E000BF502080F31188BFF34F8FBFF36F8F54
S315080033F000BF00BFFEE7206D50B900BF502080F324
S315080034001188BFF34F8FBFF36F8F00BF00BFFEE772
S31508003410206D401E2065E16CE06A88421CD0206D54
S31508003420D0B9201DFFF700F8E06CE062E06AC0F151
S315080034303800A0610A49E06A0968884202D9084941
S31508003440E06A0860E16A01EB8101064A02EB810045
S31508003450211DFFF73FF80126304670BD44000020C5
S315080034605C000020D443002070B50646F068C468A6
S3150800347054B900BF502080F31188BFF34F8FBFF3B4
S315080034806F8F00BF00BFFEE704F11800FEF7CCFF00
S3150800349015480068A0B9201DFEF7C6FF1349E06A63
S315080034A00968884202D91149E06A0860E16A01EBB5
S315080034B081010F4A02EB8100211DFFF70BF804E09A
S315080034C004F118010B48FFF705F80B49E06A09688B
S315080034D0C96A884204D9012501200849086000E024
S315080034E00025284670BD00007C0000205C000020F6
S315080034F0D44300205C4800204400002068000020D7
S3150800350070B5002400263648006850B900BF502020
S3150800351080F31188BFF34F8FBFF36F8F00BF00BFD3
S31508003520FEE7FEF7E3FF2E480068401E2C490860B8
S315080035300846006800284ED12A48006800284AD064
S3150800354023E02948C068C46804F11800FEF76CFF38
S31508003550201DFEF769FF2549E06A0968884202D9F5
S315080035602249E06A0860E16A01EB8101204A02EB20
S315080035708100211DFEF7AEFF1E49E06A0968C96A87
S31508003580884202D301201C4908601748006808B918
S31508003590012000E000200028D3D00CB1FEF79AFDE8
S315080035A01648056865B100BFFFF76AFE10B101202D
S315080035B0114908606D1E002DF6D100200F490860DC
S315080035C00D48006838B1012630070D490860BFF379
S315080035D04F8FBFF36F8FFEF7B3FF304670BD000005
S315080035E07C000020540000205C4800205C0000207D
S315080035F0D443002044000020680000206400002016
S3150800360004ED00E010B586B00024FEF7D9F9164897
S315080036100068D0B100200590049003AA04A905A863
S31508003620FEF722FF0222DDE904100023CDE900217E
S3150800363002900EA10F48039AFFF7AEFD0E490860E7
S315080036400846006800B1012400BF54B900BF5020E5
S3150800365080F31188BFF34F8FBFF36F8F00BF00BF92
S31508003660FEE7204606B010BD88000020546D722083
S3150800367053766300192200088C0000202DE9FF47C5
S3150800368004460D4616461F46DDF830804FF0000901
S3150800369054B900BF502080F31188BFF34F8FBFF392
S315080036A06F8F00BF00BFFEE71448006810B300958F
S315080036B001960294062D15DAFFF7CCFD022808D1EB
S315080036C00023424669460D480068FFF7E7FA814637
S315080036D010E000231A46694608480068FFF7DEFA34
S315080036E0814607E000233A46694604480068FFF722
S315080036F0A9FB8146484604B0BDE8F087880000204B
S315080037004FF04070E1EE100A704700004837000895
S31508003710000000000000000000000000000000009B
S315080037200002000018000000000000000000000071
S315080037300000000000000000010203040607080953
S31508003740000000000102030464656661756C745428
S3150800375061736B00743700080000002094000000B5
S31508003760C401000808380008940000207C4F0000B7
S31508003770E0010008000000000024F400000000003A
S31508003780100000000100000000000000000000001A
S31508003790000000000000000000000000000000001B
S315080037A0000000000000000000000000AAAAAAAA63
S315080037B000000000000000000000000000000000FB
S315080037C000000000000000000000000000000000EB
S315080037D000000000000000000000000000000000DB
S315080037E000000000000000000000000000000000CB
S315080037F000000000000000000000000000000000BB
S30D080038000000000000000000B2
S7050800018968
